{
    "_format": "hh-sol-artifact-1",
    "address": "0xEf5d19FF010AB1960E480e3152eEEE26a870b3E3",
    "contractName": "ChakraNFT",
    "sourceName": "contracts/Chakra.sol",
    "abi": [
        {
            "inputs": [],
            "stateMutability": "nonpayable",
            "type": "constructor"
        },
        {
            "anonymous": false,
            "inputs": [
                {
                    "indexed": true,
                    "internalType": "address",
                    "name": "owner",
                    "type": "address"
                },
                {
                    "indexed": true,
                    "internalType": "address",
                    "name": "approved",
                    "type": "address"
                },
                {
                    "indexed": true,
                    "internalType": "uint256",
                    "name": "tokenId",
                    "type": "uint256"
                }
            ],
            "name": "Approval",
            "type": "event"
        },
        {
            "anonymous": false,
            "inputs": [
                {
                    "indexed": true,
                    "internalType": "address",
                    "name": "owner",
                    "type": "address"
                },
                {
                    "indexed": true,
                    "internalType": "address",
                    "name": "operator",
                    "type": "address"
                },
                {
                    "indexed": false,
                    "internalType": "bool",
                    "name": "approved",
                    "type": "bool"
                }
            ],
            "name": "ApprovalForAll",
            "type": "event"
        },
        {
            "anonymous": false,
            "inputs": [
                {
                    "indexed": true,
                    "internalType": "address",
                    "name": "previousOwner",
                    "type": "address"
                },
                {
                    "indexed": true,
                    "internalType": "address",
                    "name": "newOwner",
                    "type": "address"
                }
            ],
            "name": "OwnershipTransferred",
            "type": "event"
        },
        {
            "anonymous": false,
            "inputs": [
                {
                    "indexed": true,
                    "internalType": "address",
                    "name": "from",
                    "type": "address"
                },
                {
                    "indexed": true,
                    "internalType": "address",
                    "name": "to",
                    "type": "address"
                },
                {
                    "indexed": true,
                    "internalType": "uint256",
                    "name": "tokenId",
                    "type": "uint256"
                }
            ],
            "name": "Transfer",
            "type": "event"
        },
        {
            "inputs": [
                {
                    "internalType": "address",
                    "name": "to",
                    "type": "address"
                },
                {
                    "internalType": "uint256",
                    "name": "tokenId",
                    "type": "uint256"
                }
            ],
            "name": "approve",
            "outputs": [],
            "stateMutability": "nonpayable",
            "type": "function"
        },
        {
            "inputs": [
                {
                    "internalType": "address",
                    "name": "owner",
                    "type": "address"
                }
            ],
            "name": "balanceOf",
            "outputs": [
                {
                    "internalType": "uint256",
                    "name": "",
                    "type": "uint256"
                }
            ],
            "stateMutability": "view",
            "type": "function"
        },
        {
            "inputs": [],
            "name": "baseExtension",
            "outputs": [
                {
                    "internalType": "string",
                    "name": "",
                    "type": "string"
                }
            ],
            "stateMutability": "view",
            "type": "function"
        },
        {
            "inputs": [],
            "name": "cost",
            "outputs": [
                {
                    "internalType": "uint256",
                    "name": "",
                    "type": "uint256"
                }
            ],
            "stateMutability": "view",
            "type": "function"
        },
        {
            "inputs": [
                {
                    "internalType": "uint256",
                    "name": "tokenId",
                    "type": "uint256"
                }
            ],
            "name": "getApproved",
            "outputs": [
                {
                    "internalType": "address",
                    "name": "",
                    "type": "address"
                }
            ],
            "stateMutability": "view",
            "type": "function"
        },
        {
            "inputs": [
                {
                    "internalType": "address",
                    "name": "owner",
                    "type": "address"
                },
                {
                    "internalType": "address",
                    "name": "operator",
                    "type": "address"
                }
            ],
            "name": "isApprovedForAll",
            "outputs": [
                {
                    "internalType": "bool",
                    "name": "",
                    "type": "bool"
                }
            ],
            "stateMutability": "view",
            "type": "function"
        },
        {
            "inputs": [],
            "name": "maxMintAmount",
            "outputs": [
                {
                    "internalType": "uint256",
                    "name": "",
                    "type": "uint256"
                }
            ],
            "stateMutability": "view",
            "type": "function"
        },
        {
            "inputs": [],
            "name": "maxSupply",
            "outputs": [
                {
                    "internalType": "uint256",
                    "name": "",
                    "type": "uint256"
                }
            ],
            "stateMutability": "view",
            "type": "function"
        },
        {
            "inputs": [
                {
                    "internalType": "uint256",
                    "name": "_mintAmount",
                    "type": "uint256"
                }
            ],
            "name": "mint",
            "outputs": [],
            "stateMutability": "payable",
            "type": "function"
        },
        {
            "inputs": [],
            "name": "name",
            "outputs": [
                {
                    "internalType": "string",
                    "name": "",
                    "type": "string"
                }
            ],
            "stateMutability": "view",
            "type": "function"
        },
        {
            "inputs": [],
            "name": "owner",
            "outputs": [
                {
                    "internalType": "address",
                    "name": "",
                    "type": "address"
                }
            ],
            "stateMutability": "view",
            "type": "function"
        },
        {
            "inputs": [
                {
                    "internalType": "uint256",
                    "name": "tokenId",
                    "type": "uint256"
                }
            ],
            "name": "ownerOf",
            "outputs": [
                {
                    "internalType": "address",
                    "name": "",
                    "type": "address"
                }
            ],
            "stateMutability": "view",
            "type": "function"
        },
        {
            "inputs": [],
            "name": "renounceOwnership",
            "outputs": [],
            "stateMutability": "nonpayable",
            "type": "function"
        },
        {
            "inputs": [
                {
                    "internalType": "address",
                    "name": "from",
                    "type": "address"
                },
                {
                    "internalType": "address",
                    "name": "to",
                    "type": "address"
                },
                {
                    "internalType": "uint256",
                    "name": "tokenId",
                    "type": "uint256"
                }
            ],
            "name": "safeTransferFrom",
            "outputs": [],
            "stateMutability": "nonpayable",
            "type": "function"
        },
        {
            "inputs": [
                {
                    "internalType": "address",
                    "name": "from",
                    "type": "address"
                },
                {
                    "internalType": "address",
                    "name": "to",
                    "type": "address"
                },
                {
                    "internalType": "uint256",
                    "name": "tokenId",
                    "type": "uint256"
                },
                {
                    "internalType": "bytes",
                    "name": "_data",
                    "type": "bytes"
                }
            ],
            "name": "safeTransferFrom",
            "outputs": [],
            "stateMutability": "nonpayable",
            "type": "function"
        },
        {
            "inputs": [
                {
                    "internalType": "address",
                    "name": "operator",
                    "type": "address"
                },
                {
                    "internalType": "bool",
                    "name": "approved",
                    "type": "bool"
                }
            ],
            "name": "setApprovalForAll",
            "outputs": [],
            "stateMutability": "nonpayable",
            "type": "function"
        },
        {
            "inputs": [
                {
                    "internalType": "string",
                    "name": "_newBaseURI",
                    "type": "string"
                }
            ],
            "name": "setBaseURI",
            "outputs": [],
            "stateMutability": "nonpayable",
            "type": "function"
        },
        {
            "inputs": [
                {
                    "internalType": "uint256",
                    "name": "_newCost",
                    "type": "uint256"
                }
            ],
            "name": "setCost",
            "outputs": [],
            "stateMutability": "nonpayable",
            "type": "function"
        },
        {
            "inputs": [
                {
                    "internalType": "uint256",
                    "name": "_newmaxMintAmount",
                    "type": "uint256"
                }
            ],
            "name": "setmaxMintAmount",
            "outputs": [],
            "stateMutability": "nonpayable",
            "type": "function"
        },
        {
            "inputs": [
                {
                    "internalType": "bytes4",
                    "name": "interfaceId",
                    "type": "bytes4"
                }
            ],
            "name": "supportsInterface",
            "outputs": [
                {
                    "internalType": "bool",
                    "name": "",
                    "type": "bool"
                }
            ],
            "stateMutability": "view",
            "type": "function"
        },
        {
            "inputs": [],
            "name": "symbol",
            "outputs": [
                {
                    "internalType": "string",
                    "name": "",
                    "type": "string"
                }
            ],
            "stateMutability": "view",
            "type": "function"
        },
        {
            "inputs": [
                {
                    "internalType": "uint256",
                    "name": "index",
                    "type": "uint256"
                }
            ],
            "name": "tokenByIndex",
            "outputs": [
                {
                    "internalType": "uint256",
                    "name": "",
                    "type": "uint256"
                }
            ],
            "stateMutability": "view",
            "type": "function"
        },
        {
            "inputs": [
                {
                    "internalType": "address",
                    "name": "owner",
                    "type": "address"
                },
                {
                    "internalType": "uint256",
                    "name": "index",
                    "type": "uint256"
                }
            ],
            "name": "tokenOfOwnerByIndex",
            "outputs": [
                {
                    "internalType": "uint256",
                    "name": "",
                    "type": "uint256"
                }
            ],
            "stateMutability": "view",
            "type": "function"
        },
        {
            "inputs": [
                {
                    "internalType": "uint256",
                    "name": "tokenId",
                    "type": "uint256"
                }
            ],
            "name": "tokenURI",
            "outputs": [
                {
                    "internalType": "string",
                    "name": "",
                    "type": "string"
                }
            ],
            "stateMutability": "view",
            "type": "function"
        },
        {
            "inputs": [],
            "name": "totalSupply",
            "outputs": [
                {
                    "internalType": "uint256",
                    "name": "",
                    "type": "uint256"
                }
            ],
            "stateMutability": "view",
            "type": "function"
        },
        {
            "inputs": [
                {
                    "internalType": "address",
                    "name": "from",
                    "type": "address"
                },
                {
                    "internalType": "address",
                    "name": "to",
                    "type": "address"
                },
                {
                    "internalType": "uint256",
                    "name": "tokenId",
                    "type": "uint256"
                }
            ],
            "name": "transferFrom",
            "outputs": [],
            "stateMutability": "nonpayable",
            "type": "function"
        },
        {
            "inputs": [
                {
                    "internalType": "address",
                    "name": "newOwner",
                    "type": "address"
                }
            ],
            "name": "transferOwnership",
            "outputs": [],
            "stateMutability": "nonpayable",
            "type": "function"
        },
        {
            "inputs": [
                {
                    "internalType": "address",
                    "name": "_owner",
                    "type": "address"
                }
            ],
            "name": "walletOfOwner",
            "outputs": [
                {
                    "internalType": "uint256[]",
                    "name": "",
                    "type": "uint256[]"
                }
            ],
            "stateMutability": "view",
            "type": "function"
        },
        {
            "inputs": [],
            "name": "withdraw",
            "outputs": [],
            "stateMutability": "payable",
            "type": "function"
        }
    ],
    "bytecode": "0x60806040526040518060400160405280600581526020017f2e6a736f6e000000000000000000000000000000000000000000000000000000815250600c90805190602001906200005192919062000209565b5066b1a2bc2ec50000600d556020600e556001600f553480156200007457600080fd5b506040518060400160405280600681526020017f4368616b726100000000000000000000000000000000000000000000000000008152506040518060400160405280600481526020017f434b5241000000000000000000000000000000000000000000000000000000008152508160009080519060200190620000f992919062000209565b5080600190805190602001906200011292919062000209565b50505062000135620001296200013b60201b60201c565b6200014360201b60201c565b6200031e565b600033905090565b6000600a60009054906101000a900473ffffffffffffffffffffffffffffffffffffffff16905081600a60006101000a81548173ffffffffffffffffffffffffffffffffffffffff021916908373ffffffffffffffffffffffffffffffffffffffff1602179055508173ffffffffffffffffffffffffffffffffffffffff168173ffffffffffffffffffffffffffffffffffffffff167f8be0079c531659141344cd1fd0a4f28419497f9722a3daafe3b4186f6b6457e060405160405180910390a35050565b8280546200021790620002b9565b90600052602060002090601f0160209004810192826200023b576000855562000287565b82601f106200025657805160ff191683800117855562000287565b8280016001018555821562000287579182015b828111156200028657825182559160200191906001019062000269565b5b5090506200029691906200029a565b5090565b5b80821115620002b55760008160009055506001016200029b565b5090565b60006002820490506001821680620002d257607f821691505b60208210811415620002e957620002e8620002ef565b5b50919050565b7f4e487b7100000000000000000000000000000000000000000000000000000000600052602260045260246000fd5b613f2f806200032e6000396000f3fe6080604052600436106101c25760003560e01c806355f804b3116100f7578063a0712d6811610095578063c87b56dd11610064578063c87b56dd14610624578063d5abeb0114610661578063e985e9c51461068c578063f2fde38b146106c9576101c2565b8063a0712d681461058b578063a22cb465146105a7578063b88d4fde146105d0578063c6682862146105f9576101c2565b8063715018a6116100d1578063715018a6146104f55780637f00c7a61461050c5780638da5cb5b1461053557806395d89b4114610560576101c2565b806355f804b3146104525780636352211e1461047b57806370a08231146104b8576101c2565b806323b872dd1161016457806342842e0e1161013e57806342842e0e14610386578063438b6300146103af57806344a0d68a146103ec5780634f6ccce714610415576101c2565b806323b872dd146103165780632f745c591461033f5780633ccfd60b1461037c576101c2565b8063095ea7b3116101a0578063095ea7b31461026c57806313faede61461029557806318160ddd146102c0578063239c70ae146102eb576101c2565b806301ffc9a7146101c757806306fdde0314610204578063081812fc1461022f575b600080fd5b3480156101d357600080fd5b506101ee60048036038101906101e99190612c7c565b6106f2565b6040516101fb9190613274565b60405180910390f35b34801561021057600080fd5b5061021961076c565b604051610226919061328f565b60405180910390f35b34801561023b57600080fd5b5061025660048036038101906102519190612d0f565b6107fe565b60405161026391906131eb565b60405180910390f35b34801561027857600080fd5b50610293600480360381019061028e9190612c40565b610883565b005b3480156102a157600080fd5b506102aa61099b565b6040516102b791906134f1565b60405180910390f35b3480156102cc57600080fd5b506102d56109a1565b6040516102e291906134f1565b60405180910390f35b3480156102f757600080fd5b506103006109ae565b60405161030d91906134f1565b60405180910390f35b34801561032257600080fd5b5061033d60048036038101906103389190612b3a565b6109b4565b005b34801561034b57600080fd5b5061036660048036038101906103619190612c40565b610a14565b60405161037391906134f1565b60405180910390f35b610384610ab9565b005b34801561039257600080fd5b506103ad60048036038101906103a89190612b3a565b610bb5565b005b3480156103bb57600080fd5b506103d660048036038101906103d19190612ad5565b610bd5565b6040516103e39190613252565b60405180910390f35b3480156103f857600080fd5b50610413600480360381019061040e9190612d0f565b610ccf565b005b34801561042157600080fd5b5061043c60048036038101906104379190612d0f565b610d55565b60405161044991906134f1565b60405180910390f35b34801561045e57600080fd5b5061047960048036038101906104749190612cce565b610dec565b005b34801561048757600080fd5b506104a2600480360381019061049d9190612d0f565b610e82565b6040516104af91906131eb565b60405180910390f35b3480156104c457600080fd5b506104df60048036038101906104da9190612ad5565b610f34565b6040516104ec91906134f1565b60405180910390f35b34801561050157600080fd5b5061050a610fec565b005b34801561051857600080fd5b50610533600480360381019061052e9190612d0f565b611074565b005b34801561054157600080fd5b5061054a6110fa565b60405161055791906131eb565b60405180910390f35b34801561056c57600080fd5b50610575611124565b604051610582919061328f565b60405180910390f35b6105a560048036038101906105a09190612d0f565b6111b6565b005b3480156105b357600080fd5b506105ce60048036038101906105c99190612c04565b611288565b005b3480156105dc57600080fd5b506105f760048036038101906105f29190612b89565b61129e565b005b34801561060557600080fd5b5061060e611300565b60405161061b919061328f565b60405180910390f35b34801561063057600080fd5b5061064b60048036038101906106469190612d0f565b61138e565b604051610658919061328f565b60405180910390f35b34801561066d57600080fd5b50610676611438565b60405161068391906134f1565b60405180910390f35b34801561069857600080fd5b506106b360048036038101906106ae9190612afe565b61143e565b6040516106c09190613274565b60405180910390f35b3480156106d557600080fd5b506106f060048036038101906106eb9190612ad5565b6114d2565b005b60007f780e9d63000000000000000000000000000000000000000000000000000000007bffffffffffffffffffffffffffffffffffffffffffffffffffffffff1916827bffffffffffffffffffffffffffffffffffffffffffffffffffffffff191614806107655750610764826115ca565b5b9050919050565b60606000805461077b906137fa565b80601f01602080910402602001604051908101604052809291908181526020018280546107a7906137fa565b80156107f45780601f106107c9576101008083540402835291602001916107f4565b820191906000526020600020905b8154815290600101906020018083116107d757829003601f168201915b5050505050905090565b6000610809826116ac565b610848576040517f08c379a000000000000000000000000000000000000000000000000000000000815260040161083f90613431565b60405180910390fd5b6004600083815260200190815260200160002060009054906101000a900473ffffffffffffffffffffffffffffffffffffffff169050919050565b600061088e82610e82565b90508073ffffffffffffffffffffffffffffffffffffffff168373ffffffffffffffffffffffffffffffffffffffff1614156108ff576040517f08c379a00000000000000000000000000000000000000000000000000000000081526004016108f690613491565b60405180910390fd5b8073ffffffffffffffffffffffffffffffffffffffff1661091e611718565b73ffffffffffffffffffffffffffffffffffffffff16148061094d575061094c81610947611718565b61143e565b5b61098c576040517f08c379a0000000000000000000000000000000000000000000000000000000008152600401610983906133b1565b60405180910390fd5b6109968383611720565b505050565b600d5481565b6000600880549050905090565b600f5481565b6109c56109bf611718565b826117d9565b610a04576040517f08c379a00000000000000000000000000000000000000000000000000000000081526004016109fb906134b1565b60405180910390fd5b610a0f8383836118b7565b505050565b6000610a1f83610f34565b8210610a60576040517f08c379a0000000000000000000000000000000000000000000000000000000008152600401610a57906132b1565b60405180910390fd5b600660008473ffffffffffffffffffffffffffffffffffffffff1673ffffffffffffffffffffffffffffffffffffffff168152602001908152602001600020600083815260200190815260200160002054905092915050565b610ac1611718565b73ffffffffffffffffffffffffffffffffffffffff16610adf6110fa565b73ffffffffffffffffffffffffffffffffffffffff1614610b35576040517f08c379a0000000000000000000000000000000000000000000000000000000008152600401610b2c90613451565b60405180910390fd5b6000610b3f6110fa565b73ffffffffffffffffffffffffffffffffffffffff1647604051610b62906131d6565b60006040518083038185875af1925050503d8060008114610b9f576040519150601f19603f3d011682016040523d82523d6000602084013e610ba4565b606091505b5050905080610bb257600080fd5b50565b610bd08383836040518060200160405280600081525061129e565b505050565b60606000610be283610f34565b905060008167ffffffffffffffff811115610c26577f4e487b7100000000000000000000000000000000000000000000000000000000600052604160045260246000fd5b604051908082528060200260200182016040528015610c545781602001602082028036833780820191505090505b50905060005b82811015610cc457610c6c8582610a14565b828281518110610ca5577f4e487b7100000000000000000000000000000000000000000000000000000000600052603260045260246000fd5b6020026020010181815250508080610cbc9061385d565b915050610c5a565b508092505050919050565b610cd7611718565b73ffffffffffffffffffffffffffffffffffffffff16610cf56110fa565b73ffffffffffffffffffffffffffffffffffffffff1614610d4b576040517f08c379a0000000000000000000000000000000000000000000000000000000008152600401610d4290613451565b60405180910390fd5b80600d8190555050565b6000610d5f6109a1565b8210610da0576040517f08c379a0000000000000000000000000000000000000000000000000000000008152600401610d97906134d1565b60405180910390fd5b60088281548110610dda577f4e487b7100000000000000000000000000000000000000000000000000000000600052603260045260246000fd5b90600052602060002001549050919050565b610df4611718565b73ffffffffffffffffffffffffffffffffffffffff16610e126110fa565b73ffffffffffffffffffffffffffffffffffffffff1614610e68576040517f08c379a0000000000000000000000000000000000000000000000000000000008152600401610e5f90613451565b60405180910390fd5b80600b9080519060200190610e7e9291906128f9565b5050565b6000806002600084815260200190815260200160002060009054906101000a900473ffffffffffffffffffffffffffffffffffffffff169050600073ffffffffffffffffffffffffffffffffffffffff168173ffffffffffffffffffffffffffffffffffffffff161415610f2b576040517f08c379a0000000000000000000000000000000000000000000000000000000008152600401610f22906133f1565b60405180910390fd5b80915050919050565b60008073ffffffffffffffffffffffffffffffffffffffff168273ffffffffffffffffffffffffffffffffffffffff161415610fa5576040517f08c379a0000000000000000000000000000000000000000000000000000000008152600401610f9c906133d1565b60405180910390fd5b600360008373ffffffffffffffffffffffffffffffffffffffff1673ffffffffffffffffffffffffffffffffffffffff168152602001908152602001600020549050919050565b610ff4611718565b73ffffffffffffffffffffffffffffffffffffffff166110126110fa565b73ffffffffffffffffffffffffffffffffffffffff1614611068576040517f08c379a000000000000000000000000000000000000000000000000000000000815260040161105f90613451565b60405180910390fd5b6110726000611b1e565b565b61107c611718565b73ffffffffffffffffffffffffffffffffffffffff1661109a6110fa565b73ffffffffffffffffffffffffffffffffffffffff16146110f0576040517f08c379a00000000000000000000000000000000000000000000000000000000081526004016110e790613451565b60405180910390fd5b80600f8190555050565b6000600a60009054906101000a900473ffffffffffffffffffffffffffffffffffffffff16905090565b606060018054611133906137fa565b80601f016020809104026020016040519081016040528092919081815260200182805461115f906137fa565b80156111ac5780601f10611181576101008083540402835291602001916111ac565b820191906000526020600020905b81548152906001019060200180831161118f57829003601f168201915b5050505050905090565b60006111c06109a1565b9050600082116111cf57600080fd5b600f548211156111de57600080fd5b600e5482826111ed919061362f565b11156111f857600080fd5b6112006110fa565b73ffffffffffffffffffffffffffffffffffffffff163373ffffffffffffffffffffffffffffffffffffffff161461124d5781600d5461124091906136b6565b34101561124c57600080fd5b5b6000600190505b8281116112835761127033828461126b919061362f565b611be4565b808061127b9061385d565b915050611254565b505050565b61129a611293611718565b8383611c02565b5050565b6112af6112a9611718565b836117d9565b6112ee576040517f08c379a00000000000000000000000000000000000000000000000000000000081526004016112e5906134b1565b60405180910390fd5b6112fa84848484611d6f565b50505050565b600c805461130d906137fa565b80601f0160208091040260200160405190810160405280929190818152602001828054611339906137fa565b80156113865780601f1061135b57610100808354040283529160200191611386565b820191906000526020600020905b81548152906001019060200180831161136957829003601f168201915b505050505081565b6060611399826116ac565b6113d8576040517f08c379a00000000000000000000000000000000000000000000000000000000081526004016113cf90613471565b60405180910390fd5b60006113e2611dcb565b905060008151116114025760405180602001604052806000815250611430565b8061140c84611e5d565b600c604051602001611420939291906131a5565b6040516020818303038152906040525b915050919050565b600e5481565b6000600560008473ffffffffffffffffffffffffffffffffffffffff1673ffffffffffffffffffffffffffffffffffffffff16815260200190815260200160002060008373ffffffffffffffffffffffffffffffffffffffff1673ffffffffffffffffffffffffffffffffffffffff16815260200190815260200160002060009054906101000a900460ff16905092915050565b6114da611718565b73ffffffffffffffffffffffffffffffffffffffff166114f86110fa565b73ffffffffffffffffffffffffffffffffffffffff161461154e576040517f08c379a000000000000000000000000000000000000000000000000000000000815260040161154590613451565b60405180910390fd5b600073ffffffffffffffffffffffffffffffffffffffff168173ffffffffffffffffffffffffffffffffffffffff1614156115be576040517f08c379a00000000000000000000000000000000000000000000000000000000081526004016115b5906132f1565b60405180910390fd5b6115c781611b1e565b50565b60007f80ac58cd000000000000000000000000000000000000000000000000000000007bffffffffffffffffffffffffffffffffffffffffffffffffffffffff1916827bffffffffffffffffffffffffffffffffffffffffffffffffffffffff1916148061169557507f5b5e139f000000000000000000000000000000000000000000000000000000007bffffffffffffffffffffffffffffffffffffffffffffffffffffffff1916827bffffffffffffffffffffffffffffffffffffffffffffffffffffffff1916145b806116a557506116a48261200a565b5b9050919050565b60008073ffffffffffffffffffffffffffffffffffffffff166002600084815260200190815260200160002060009054906101000a900473ffffffffffffffffffffffffffffffffffffffff1673ffffffffffffffffffffffffffffffffffffffff1614159050919050565b600033905090565b816004600083815260200190815260200160002060006101000a81548173ffffffffffffffffffffffffffffffffffffffff021916908373ffffffffffffffffffffffffffffffffffffffff160217905550808273ffffffffffffffffffffffffffffffffffffffff1661179383610e82565b73ffffffffffffffffffffffffffffffffffffffff167f8c5be1e5ebec7d5bd14f71427d1e84f3dd0314c0f7b2291e5b200ac8c7c3b92560405160405180910390a45050565b60006117e4826116ac565b611823576040517f08c379a000000000000000000000000000000000000000000000000000000000815260040161181a90613391565b60405180910390fd5b600061182e83610e82565b90508073ffffffffffffffffffffffffffffffffffffffff168473ffffffffffffffffffffffffffffffffffffffff161480611870575061186f818561143e565b5b806118ae57508373ffffffffffffffffffffffffffffffffffffffff16611896846107fe565b73ffffffffffffffffffffffffffffffffffffffff16145b91505092915050565b8273ffffffffffffffffffffffffffffffffffffffff166118d782610e82565b73ffffffffffffffffffffffffffffffffffffffff161461192d576040517f08c379a000000000000000000000000000000000000000000000000000000000815260040161192490613311565b60405180910390fd5b600073ffffffffffffffffffffffffffffffffffffffff168273ffffffffffffffffffffffffffffffffffffffff16141561199d576040517f08c379a000000000000000000000000000000000000000000000000000000000815260040161199490613351565b60405180910390fd5b6119a8838383612074565b6119b3600082611720565b6001600360008573ffffffffffffffffffffffffffffffffffffffff1673ffffffffffffffffffffffffffffffffffffffff1681526020019081526020016000206000828254611a039190613710565b925050819055506001600360008473ffffffffffffffffffffffffffffffffffffffff1673ffffffffffffffffffffffffffffffffffffffff1681526020019081526020016000206000828254611a5a919061362f565b92505081905550816002600083815260200190815260200160002060006101000a81548173ffffffffffffffffffffffffffffffffffffffff021916908373ffffffffffffffffffffffffffffffffffffffff160217905550808273ffffffffffffffffffffffffffffffffffffffff168473ffffffffffffffffffffffffffffffffffffffff167fddf252ad1be2c89b69c2b068fc378daa952ba7f163c4a11628f55a4df523b3ef60405160405180910390a4611b19838383612188565b505050565b6000600a60009054906101000a900473ffffffffffffffffffffffffffffffffffffffff16905081600a60006101000a81548173ffffffffffffffffffffffffffffffffffffffff021916908373ffffffffffffffffffffffffffffffffffffffff1602179055508173ffffffffffffffffffffffffffffffffffffffff168173ffffffffffffffffffffffffffffffffffffffff167f8be0079c531659141344cd1fd0a4f28419497f9722a3daafe3b4186f6b6457e060405160405180910390a35050565b611bfe82826040518060200160405280600081525061218d565b5050565b8173ffffffffffffffffffffffffffffffffffffffff168373ffffffffffffffffffffffffffffffffffffffff161415611c71576040517f08c379a0000000000000000000000000000000000000000000000000000000008152600401611c6890613371565b60405180910390fd5b80600560008573ffffffffffffffffffffffffffffffffffffffff1673ffffffffffffffffffffffffffffffffffffffff16815260200190815260200160002060008473ffffffffffffffffffffffffffffffffffffffff1673ffffffffffffffffffffffffffffffffffffffff16815260200190815260200160002060006101000a81548160ff0219169083151502179055508173ffffffffffffffffffffffffffffffffffffffff168373ffffffffffffffffffffffffffffffffffffffff167f17307eab39ab6107e8899845ad3d59bd9653f200f220920489ca2b5937696c3183604051611d629190613274565b60405180910390a3505050565b611d7a8484846118b7565b611d86848484846121e8565b611dc5576040517f08c379a0000000000000000000000000000000000000000000000000000000008152600401611dbc906132d1565b60405180910390fd5b50505050565b6060600b8054611dda906137fa565b80601f0160208091040260200160405190810160405280929190818152602001828054611e06906137fa565b8015611e535780601f10611e2857610100808354040283529160200191611e53565b820191906000526020600020905b815481529060010190602001808311611e3657829003601f168201915b5050505050905090565b60606000821415611ea5576040518060400160405280600181526020017f30000000000000000000000000000000000000000000000000000000000000008152509050612005565b600082905060005b60008214611ed7578080611ec09061385d565b915050600a82611ed09190613685565b9150611ead565b60008167ffffffffffffffff811115611f19577f4e487b7100000000000000000000000000000000000000000000000000000000600052604160045260246000fd5b6040519080825280601f01601f191660200182016040528015611f4b5781602001600182028036833780820191505090505b5090505b60008514611ffe57600182611f649190613710565b9150600a85611f7391906138a6565b6030611f7f919061362f565b60f81b818381518110611fbb577f4e487b7100000000000000000000000000000000000000000000000000000000600052603260045260246000fd5b60200101907effffffffffffffffffffffffffffffffffffffffffffffffffffffffffffff1916908160001a905350600a85611ff79190613685565b9450611f4f565b8093505050505b919050565b60007f01ffc9a7000000000000000000000000000000000000000000000000000000007bffffffffffffffffffffffffffffffffffffffffffffffffffffffff1916827bffffffffffffffffffffffffffffffffffffffffffffffffffffffff1916149050919050565b61207f83838361237f565b600073ffffffffffffffffffffffffffffffffffffffff168373ffffffffffffffffffffffffffffffffffffffff1614156120c2576120bd81612384565b612101565b8173ffffffffffffffffffffffffffffffffffffffff168373ffffffffffffffffffffffffffffffffffffffff1614612100576120ff83826123cd565b5b5b600073ffffffffffffffffffffffffffffffffffffffff168273ffffffffffffffffffffffffffffffffffffffff1614156121445761213f8161253a565b612183565b8273ffffffffffffffffffffffffffffffffffffffff168273ffffffffffffffffffffffffffffffffffffffff161461218257612181828261267d565b5b5b505050565b505050565b61219783836126fc565b6121a460008484846121e8565b6121e3576040517f08c379a00000000000000000000000000000000000000000000000000000000081526004016121da906132d1565b60405180910390fd5b505050565b60006122098473ffffffffffffffffffffffffffffffffffffffff166128d6565b15612372578373ffffffffffffffffffffffffffffffffffffffff1663150b7a02612232611718565b8786866040518563ffffffff1660e01b81526004016122549493929190613206565b602060405180830381600087803b15801561226e57600080fd5b505af192505050801561229f57506040513d601f19601f8201168201806040525081019061229c9190612ca5565b60015b612322573d80600081146122cf576040519150601f19603f3d011682016040523d82523d6000602084013e6122d4565b606091505b5060008151141561231a576040517f08c379a0000000000000000000000000000000000000000000000000000000008152600401612311906132d1565b60405180910390fd5b805181602001fd5b63150b7a0260e01b7bffffffffffffffffffffffffffffffffffffffffffffffffffffffff1916817bffffffffffffffffffffffffffffffffffffffffffffffffffffffff191614915050612377565b600190505b949350505050565b505050565b6008805490506009600083815260200190815260200160002081905550600881908060018154018082558091505060019003906000526020600020016000909190919091505550565b600060016123da84610f34565b6123e49190613710565b90506000600760008481526020019081526020016000205490508181146124c9576000600660008673ffffffffffffffffffffffffffffffffffffffff1673ffffffffffffffffffffffffffffffffffffffff168152602001908152602001600020600084815260200190815260200160002054905080600660008773ffffffffffffffffffffffffffffffffffffffff1673ffffffffffffffffffffffffffffffffffffffff168152602001908152602001600020600084815260200190815260200160002081905550816007600083815260200190815260200160002081905550505b6007600084815260200190815260200160002060009055600660008573ffffffffffffffffffffffffffffffffffffffff1673ffffffffffffffffffffffffffffffffffffffff16815260200190815260200160002060008381526020019081526020016000206000905550505050565b6000600160088054905061254e9190613710565b90506000600960008481526020019081526020016000205490506000600883815481106125a4577f4e487b7100000000000000000000000000000000000000000000000000000000600052603260045260246000fd5b9060005260206000200154905080600883815481106125ec577f4e487b7100000000000000000000000000000000000000000000000000000000600052603260045260246000fd5b906000526020600020018190555081600960008381526020019081526020016000208190555060096000858152602001908152602001600020600090556008805480612661577f4e487b7100000000000000000000000000000000000000000000000000000000600052603160045260246000fd5b6001900381819060005260206000200160009055905550505050565b600061268883610f34565b905081600660008573ffffffffffffffffffffffffffffffffffffffff1673ffffffffffffffffffffffffffffffffffffffff168152602001908152602001600020600083815260200190815260200160002081905550806007600084815260200190815260200160002081905550505050565b600073ffffffffffffffffffffffffffffffffffffffff168273ffffffffffffffffffffffffffffffffffffffff16141561276c576040517f08c379a000000000000000000000000000000000000000000000000000000000815260040161276390613411565b60405180910390fd5b612775816116ac565b156127b5576040517f08c379a00000000000000000000000000000000000000000000000000000000081526004016127ac90613331565b60405180910390fd5b6127c160008383612074565b6001600360008473ffffffffffffffffffffffffffffffffffffffff1673ffffffffffffffffffffffffffffffffffffffff1681526020019081526020016000206000828254612811919061362f565b92505081905550816002600083815260200190815260200160002060006101000a81548173ffffffffffffffffffffffffffffffffffffffff021916908373ffffffffffffffffffffffffffffffffffffffff160217905550808273ffffffffffffffffffffffffffffffffffffffff16600073ffffffffffffffffffffffffffffffffffffffff167fddf252ad1be2c89b69c2b068fc378daa952ba7f163c4a11628f55a4df523b3ef60405160405180910390a46128d260008383612188565b5050565b6000808273ffffffffffffffffffffffffffffffffffffffff163b119050919050565b828054612905906137fa565b90600052602060002090601f016020900481019282612927576000855561296e565b82601f1061294057805160ff191683800117855561296e565b8280016001018555821561296e579182015b8281111561296d578251825591602001919060010190612952565b5b50905061297b919061297f565b5090565b5b80821115612998576000816000905550600101612980565b5090565b60006129af6129aa84613531565b61350c565b9050828152602081018484840111156129c757600080fd5b6129d28482856137b8565b509392505050565b60006129ed6129e884613562565b61350c565b905082815260208101848484011115612a0557600080fd5b612a108482856137b8565b509392505050565b600081359050612a2781613e9d565b92915050565b600081359050612a3c81613eb4565b92915050565b600081359050612a5181613ecb565b92915050565b600081519050612a6681613ecb565b92915050565b600082601f830112612a7d57600080fd5b8135612a8d84826020860161299c565b91505092915050565b600082601f830112612aa757600080fd5b8135612ab78482602086016129da565b91505092915050565b600081359050612acf81613ee2565b92915050565b600060208284031215612ae757600080fd5b6000612af584828501612a18565b91505092915050565b60008060408385031215612b1157600080fd5b6000612b1f85828601612a18565b9250506020612b3085828601612a18565b9150509250929050565b600080600060608486031215612b4f57600080fd5b6000612b5d86828701612a18565b9350506020612b6e86828701612a18565b9250506040612b7f86828701612ac0565b9150509250925092565b60008060008060808587031215612b9f57600080fd5b6000612bad87828801612a18565b9450506020612bbe87828801612a18565b9350506040612bcf87828801612ac0565b925050606085013567ffffffffffffffff811115612bec57600080fd5b612bf887828801612a6c565b91505092959194509250565b60008060408385031215612c1757600080fd5b6000612c2585828601612a18565b9250506020612c3685828601612a2d565b9150509250929050565b60008060408385031215612c5357600080fd5b6000612c6185828601612a18565b9250506020612c7285828601612ac0565b9150509250929050565b600060208284031215612c8e57600080fd5b6000612c9c84828501612a42565b91505092915050565b600060208284031215612cb757600080fd5b6000612cc584828501612a57565b91505092915050565b600060208284031215612ce057600080fd5b600082013567ffffffffffffffff811115612cfa57600080fd5b612d0684828501612a96565b91505092915050565b600060208284031215612d2157600080fd5b6000612d2f84828501612ac0565b91505092915050565b6000612d448383613187565b60208301905092915050565b612d5981613744565b82525050565b6000612d6a826135b8565b612d7481856135e6565b9350612d7f83613593565b8060005b83811015612db0578151612d978882612d38565b9750612da2836135d9565b925050600181019050612d83565b5085935050505092915050565b612dc681613756565b82525050565b6000612dd7826135c3565b612de181856135f7565b9350612df18185602086016137c7565b612dfa81613993565b840191505092915050565b6000612e10826135ce565b612e1a8185613613565b9350612e2a8185602086016137c7565b612e3381613993565b840191505092915050565b6000612e49826135ce565b612e538185613624565b9350612e638185602086016137c7565b80840191505092915050565b60008154612e7c816137fa565b612e868186613624565b94506001821660008114612ea15760018114612eb257612ee5565b60ff19831686528186019350612ee5565b612ebb856135a3565b60005b83811015612edd57815481890152600182019150602081019050612ebe565b838801955050505b50505092915050565b6000612efb602b83613613565b9150612f06826139a4565b604082019050919050565b6000612f1e603283613613565b9150612f29826139f3565b604082019050919050565b6000612f41602683613613565b9150612f4c82613a42565b604082019050919050565b6000612f64602583613613565b9150612f6f82613a91565b604082019050919050565b6000612f87601c83613613565b9150612f9282613ae0565b602082019050919050565b6000612faa602483613613565b9150612fb582613b09565b604082019050919050565b6000612fcd601983613613565b9150612fd882613b58565b602082019050919050565b6000612ff0602c83613613565b9150612ffb82613b81565b604082019050919050565b6000613013603883613613565b915061301e82613bd0565b604082019050919050565b6000613036602a83613613565b915061304182613c1f565b604082019050919050565b6000613059602983613613565b915061306482613c6e565b604082019050919050565b600061307c602083613613565b915061308782613cbd565b602082019050919050565b600061309f602c83613613565b91506130aa82613ce6565b604082019050919050565b60006130c2602083613613565b91506130cd82613d35565b602082019050919050565b60006130e5602f83613613565b91506130f082613d5e565b604082019050919050565b6000613108602183613613565b915061311382613dad565b604082019050919050565b600061312b600083613608565b915061313682613dfc565b600082019050919050565b600061314e603183613613565b915061315982613dff565b604082019050919050565b6000613171602c83613613565b915061317c82613e4e565b604082019050919050565b613190816137ae565b82525050565b61319f816137ae565b82525050565b60006131b18286612e3e565b91506131bd8285612e3e565b91506131c98284612e6f565b9150819050949350505050565b60006131e18261311e565b9150819050919050565b60006020820190506132006000830184612d50565b92915050565b600060808201905061321b6000830187612d50565b6132286020830186612d50565b6132356040830185613196565b81810360608301526132478184612dcc565b905095945050505050565b6000602082019050818103600083015261326c8184612d5f565b905092915050565b60006020820190506132896000830184612dbd565b92915050565b600060208201905081810360008301526132a98184612e05565b905092915050565b600060208201905081810360008301526132ca81612eee565b9050919050565b600060208201905081810360008301526132ea81612f11565b9050919050565b6000602082019050818103600083015261330a81612f34565b9050919050565b6000602082019050818103600083015261332a81612f57565b9050919050565b6000602082019050818103600083015261334a81612f7a565b9050919050565b6000602082019050818103600083015261336a81612f9d565b9050919050565b6000602082019050818103600083015261338a81612fc0565b9050919050565b600060208201905081810360008301526133aa81612fe3565b9050919050565b600060208201905081810360008301526133ca81613006565b9050919050565b600060208201905081810360008301526133ea81613029565b9050919050565b6000602082019050818103600083015261340a8161304c565b9050919050565b6000602082019050818103600083015261342a8161306f565b9050919050565b6000602082019050818103600083015261344a81613092565b9050919050565b6000602082019050818103600083015261346a816130b5565b9050919050565b6000602082019050818103600083015261348a816130d8565b9050919050565b600060208201905081810360008301526134aa816130fb565b9050919050565b600060208201905081810360008301526134ca81613141565b9050919050565b600060208201905081810360008301526134ea81613164565b9050919050565b60006020820190506135066000830184613196565b92915050565b6000613516613527565b9050613522828261382c565b919050565b6000604051905090565b600067ffffffffffffffff82111561354c5761354b613964565b5b61355582613993565b9050602081019050919050565b600067ffffffffffffffff82111561357d5761357c613964565b5b61358682613993565b9050602081019050919050565b6000819050602082019050919050565b60008190508160005260206000209050919050565b600081519050919050565b600081519050919050565b600081519050919050565b6000602082019050919050565b600082825260208201905092915050565b600082825260208201905092915050565b600081905092915050565b600082825260208201905092915050565b600081905092915050565b600061363a826137ae565b9150613645836137ae565b9250827fffffffffffffffffffffffffffffffffffffffffffffffffffffffffffffffff0382111561367a576136796138d7565b5b828201905092915050565b6000613690826137ae565b915061369b836137ae565b9250826136ab576136aa613906565b5b828204905092915050565b60006136c1826137ae565b91506136cc836137ae565b9250817fffffffffffffffffffffffffffffffffffffffffffffffffffffffffffffffff0483118215151615613705576137046138d7565b5b828202905092915050565b600061371b826137ae565b9150613726836137ae565b925082821015613739576137386138d7565b5b828203905092915050565b600061374f8261378e565b9050919050565b60008115159050919050565b60007fffffffff0000000000000000000000000000000000000000000000000000000082169050919050565b600073ffffffffffffffffffffffffffffffffffffffff82169050919050565b6000819050919050565b82818337600083830152505050565b60005b838110156137e55780820151818401526020810190506137ca565b838111156137f4576000848401525b50505050565b6000600282049050600182168061381257607f821691505b6020821081141561382657613825613935565b5b50919050565b61383582613993565b810181811067ffffffffffffffff8211171561385457613853613964565b5b80604052505050565b6000613868826137ae565b91507fffffffffffffffffffffffffffffffffffffffffffffffffffffffffffffffff82141561389b5761389a6138d7565b5b600182019050919050565b60006138b1826137ae565b91506138bc836137ae565b9250826138cc576138cb613906565b5b828206905092915050565b7f4e487b7100000000000000000000000000000000000000000000000000000000600052601160045260246000fd5b7f4e487b7100000000000000000000000000000000000000000000000000000000600052601260045260246000fd5b7f4e487b7100000000000000000000000000000000000000000000000000000000600052602260045260246000fd5b7f4e487b7100000000000000000000000000000000000000000000000000000000600052604160045260246000fd5b6000601f19601f8301169050919050565b7f455243373231456e756d657261626c653a206f776e657220696e646578206f7560008201527f74206f6620626f756e6473000000000000000000000000000000000000000000602082015250565b7f4552433732313a207472616e7366657220746f206e6f6e20455243373231526560008201527f63656976657220696d706c656d656e7465720000000000000000000000000000602082015250565b7f4f776e61626c653a206e6577206f776e657220697320746865207a65726f206160008201527f6464726573730000000000000000000000000000000000000000000000000000602082015250565b7f4552433732313a207472616e736665722066726f6d20696e636f72726563742060008201527f6f776e6572000000000000000000000000000000000000000000000000000000602082015250565b7f4552433732313a20746f6b656e20616c7265616479206d696e74656400000000600082015250565b7f4552433732313a207472616e7366657220746f20746865207a65726f2061646460008201527f7265737300000000000000000000000000000000000000000000000000000000602082015250565b7f4552433732313a20617070726f766520746f2063616c6c657200000000000000600082015250565b7f4552433732313a206f70657261746f7220717565727920666f72206e6f6e657860008201527f697374656e7420746f6b656e0000000000000000000000000000000000000000602082015250565b7f4552433732313a20617070726f76652063616c6c6572206973206e6f74206f7760008201527f6e6572206e6f7220617070726f76656420666f7220616c6c0000000000000000602082015250565b7f4552433732313a2062616c616e636520717565727920666f7220746865207a6560008201527f726f206164647265737300000000000000000000000000000000000000000000602082015250565b7f4552433732313a206f776e657220717565727920666f72206e6f6e657869737460008201527f656e7420746f6b656e0000000000000000000000000000000000000000000000602082015250565b7f4552433732313a206d696e7420746f20746865207a65726f2061646472657373600082015250565b7f4552433732313a20617070726f76656420717565727920666f72206e6f6e657860008201527f697374656e7420746f6b656e0000000000000000000000000000000000000000602082015250565b7f4f776e61626c653a2063616c6c6572206973206e6f7420746865206f776e6572600082015250565b7f4552433732314d657461646174613a2055524920717565727920666f72206e6f60008201527f6e6578697374656e7420746f6b656e0000000000000000000000000000000000602082015250565b7f4552433732313a20617070726f76616c20746f2063757272656e74206f776e6560008201527f7200000000000000000000000000000000000000000000000000000000000000602082015250565b50565b7f4552433732313a207472616e736665722063616c6c6572206973206e6f74206f60008201527f776e6572206e6f7220617070726f766564000000000000000000000000000000602082015250565b7f455243373231456e756d657261626c653a20676c6f62616c20696e646578206f60008201527f7574206f6620626f756e64730000000000000000000000000000000000000000602082015250565b613ea681613744565b8114613eb157600080fd5b50565b613ebd81613756565b8114613ec857600080fd5b50565b613ed481613762565b8114613edf57600080fd5b50565b613eeb816137ae565b8114613ef657600080fd5b5056fea2646970667358221220f3165807c0eba87645239589876c87e64f8965814a359b6f5672570ddb3b466a64736f6c63430008040033",
    "linkReferences": {},
    "deployedLinkReferences": {}
}